:100000000C9456000C9460000C9460000C946000FA
:100010000C9460000C9460000C9460000C946000E0
:100020000C9460000C9460000C9460000C946000D0
:100030000C9460000C9460000C9460000C946000C0
:100040000C9460000C9460000C9460000C946000B0
:100050000C9460000C9460000C9460000C946000A0
:100060000C9460000C9460000C9460000C94600090
:100070000C9460000C9460000C9460000C94600080
:100080000C9460000C9460000C9460000C94600070
:100090000C9460000C9460000C9460000C94600060
:1000A0000C9460000C9460000C94600011241FBE3E
:1000B000CFEFDAE0DEBFCDBF0E9452010C942F03D8
:1000C0000C940000E1E6F0E080E880831082A1E972
:1000D000B0E08C9182608C933E9AE0E9F0E0808100
:1000E000806880838C9188608C938081826080831B
:1000F000808181608083089590E0AA2797FDA09574
:10010000BA2FBC01CD010E94F10120E030E048ECA3
:1001100052E40E945B0120E030EC4FE754E40E947F
:10012000A5020E94C30170939900609398000895FE
:100130002F923F924F925F926F927F928F929F92F7
:10014000AF92BF92CF92DF92EF92FF920F931F93E5
:10015000DF93CF9300D00F92CDB7DEB78983262FE0
:10016000CA0164E670E00E940803622E77242981A8
:10017000621A7108882499241B821A821B01442464
:1001800037FC4094542C8A819B8164E670E00E9485
:100190001C038981860F0E947C00C201B1010E946C
:1001A000F1015B016C0120E030E04AE755E40E9478
:1001B000A5027B018C0120E030E040E85FE30E9473
:1001C000570188231CF461E070E023C0C801B70127
:1001D00020E03FEF4FE757E40E94A1021816ACF46D
:1001E000C601B50120E030E040E251E40E94A502E2
:1001F0000E94C30106C080E991E00197F1F76150C8
:10020000704061157105B9F707C0C801B7010E94B8
:10021000C301CB010197F1F70894811C911C8A81DD
:100220009B81860D971D9B838A8394E68916910492
:1002300009F0A9CF0F900F900F90CF91DF911F91F0
:100240000F91FF90EF90DF90CF90BF90AF909F9075
:100250008F907F906F905F904F903F902F90089578
:1002600080E064E644E650E00E94980084E660E0A6
:1002700044E650E00E94980080E062E344E650E0EB
:100280000E94980082E360E044E650E00E949800FB
:1002900080E29EE420E931E0F9013197F1F701971E
:1002A000D9F708950E9462000E943001FDCFD4D09A
:1002B00008F481E008950CD00AC102D140F0F9D0D1
:1002C00030F021F45F3F19F0EBC0511134C1EEC0A2
:1002D0000FD198F39923C9F35523B1F3951B550B0F
:1002E000BB27AA2762177307840738F09F5F5F4F09
:1002F000220F331F441FAA1FA9F333D00E2E3AF04A
:10030000E0E830D091505040E695001CCAF729D063
:10031000FE2F27D0660F771F881FBB1F26173707B2
:100320004807AB07B0E809F0BB0B802DBF01FF27E2
:1003300093585F4F2AF09E3F510568F0B1C0FBC053
:100340005F3FECF3983EDCF3869577956795B7951C
:10035000F7959F5FC9F7880F911D9695879597F937
:100360000895E1E0660F771F881FBB1F62177307B0
:100370008407BA0720F0621B730B840BBA0BEE1FC5
:1003800088F7E0950895BCD088F09F5790F0B92F7A
:100390009927B751A0F0D1F0660F771F881F991FDA
:1003A0001AF0BA95C9F712C0B13081F0C3D0B1E0EC
:1003B0000895C0C0672F782F8827B85F39F0B93FFC
:1003C000CCF3869577956795B395D9F73EF49095DC
:1003D0008095709561957F4F8F4F9F4F0895E8945A
:1003E00009C097FB3EF490958095709561957F4F7D
:1003F0008F4F9F4F9923A9F0F92F96E9BB2793952B
:10040000F695879577956795B795F111F8CFFAF43A
:10041000BB0F11F460FF1BC06F5F7F4F8F4F9F4F6B
:1004200016C0882311F096E911C0772321F09EE8C9
:10043000872F762F05C0662371F096E8862F70E02F
:1004400060E02AF09A95660F771F881FDAF7880F09
:100450009695879597F90895990F0008550FAA0B5F
:10046000E0E8FEEF16161706E807F907C0F01216C7
:100470001306E407F50798F0621B730B840B950BCA
:1004800039F40A2661F0232B242B252B21F408951F
:100490000A2609F4A140A6958FEF811D811D0895BC
:1004A00097F99F6780E870E060E008959FEF80EC27
:1004B000089500240A9416161706180609060895CA
:1004C00000240A9412161306140605060895092E30
:1004D0000394000C11F4882352F0BB0F40F4BF2B9F
:1004E00011F460FF04C06F5F7F4F8F4F9F4F0895DF
:1004F00057FD9058440F551F59F05F3F71F04795D5
:10050000880F97FB991F61F09F3F79F087950895B9
:10051000121613061406551FF2CF4695F1DF08C0D8
:10052000161617061806991FF1CF869571056105F5
:1005300008940895E894BB2766277727CB0197F99D
:1005400008958ADF08F48FEF08950BD0C0CFB1DF94
:1005500028F0B6DF18F0952309F0A2CFA7CF112419
:10056000EACFC6DFA0F3959FD1F3950F50E0551F5A
:10057000629FF001729FBB27F00DB11D639FAA27F8
:10058000F00DB11DAA1F649F6627B00DA11D661F47
:10059000829F2227B00DA11D621F739FB00DA11D68
:1005A000621F839FA00D611D221F749F3327A00D22
:1005B000611D231F849F600D211D822F762F6A2FBE
:1005C00011249F5750408AF0E1F088234AF0EE0F43
:1005D000FF1FBB1F661F771F881F91505040A9F750
:1005E0009E3F510570F05CCFA6CF5F3FECF3983E85
:1005F000DCF3869577956795B795F795E7959F5FB7
:10060000C1F7FE2B880F911D9695879597F9089550
:10061000AA1BBB1B51E107C0AA1FBB1FA617B70728
:1006200010F0A61BB70B881F991F5A95A9F7809544
:100630009095BC01CD01089597FB092E07260AD09D
:1006400077FD04D0E5DF06D000201AF4709561959F
:100650007F4F0895F6F7909581959F4F0895F894F0
:02066000FFCFCA
:00000001FF
